{
  "contractName": "Videostream",
  "abi": [
    {
      "constant": true,
      "inputs": [
        {
          "internalType": "uint256",
          "name": "",
          "type": "uint256"
        }
      ],
      "name": "image_lists",
      "outputs": [
        {
          "internalType": "string",
          "name": "title",
          "type": "string"
        },
        {
          "internalType": "address payable",
          "name": "author_add",
          "type": "address"
        },
        {
          "internalType": "string",
          "name": "Hash",
          "type": "string"
        },
        {
          "internalType": "uint256",
          "name": "likes",
          "type": "uint256"
        },
        {
          "internalType": "uint256",
          "name": "dislikes",
          "type": "uint256"
        }
      ],
      "payable": false,
      "stateMutability": "view",
      "type": "function"
    },
    {
      "constant": true,
      "inputs": [],
      "name": "images",
      "outputs": [
        {
          "internalType": "uint256",
          "name": "",
          "type": "uint256"
        }
      ],
      "payable": false,
      "stateMutability": "view",
      "type": "function"
    },
    {
      "constant": true,
      "inputs": [
        {
          "internalType": "uint256",
          "name": "",
          "type": "uint256"
        }
      ],
      "name": "video_lists",
      "outputs": [
        {
          "internalType": "string",
          "name": "title",
          "type": "string"
        },
        {
          "internalType": "address payable",
          "name": "author_add",
          "type": "address"
        },
        {
          "internalType": "string",
          "name": "Hash",
          "type": "string"
        },
        {
          "internalType": "uint256",
          "name": "likes",
          "type": "uint256"
        },
        {
          "internalType": "uint256",
          "name": "dislikes",
          "type": "uint256"
        }
      ],
      "payable": false,
      "stateMutability": "view",
      "type": "function"
    },
    {
      "constant": true,
      "inputs": [],
      "name": "videos",
      "outputs": [
        {
          "internalType": "uint256",
          "name": "",
          "type": "uint256"
        }
      ],
      "payable": false,
      "stateMutability": "view",
      "type": "function"
    },
    {
      "constant": false,
      "inputs": [
        {
          "internalType": "string",
          "name": "video_hash",
          "type": "string"
        },
        {
          "internalType": "string",
          "name": "title",
          "type": "string"
        }
      ],
      "name": "videouploading",
      "outputs": [],
      "payable": false,
      "stateMutability": "nonpayable",
      "type": "function"
    },
    {
      "constant": false,
      "inputs": [
        {
          "internalType": "string",
          "name": "image_hash",
          "type": "string"
        },
        {
          "internalType": "string",
          "name": "title",
          "type": "string"
        }
      ],
      "name": "imageuploading",
      "outputs": [],
      "payable": false,
      "stateMutability": "nonpayable",
      "type": "function"
    },
    {
      "constant": false,
      "inputs": [
        {
          "internalType": "uint256",
          "name": "video_number",
          "type": "uint256"
        }
      ],
      "name": "donate",
      "outputs": [],
      "payable": true,
      "stateMutability": "payable",
      "type": "function"
    }
  ],
  "bytecode": "0x608060405260008055600060015534801561001957600080fd5b50610ed9806100296000396000f3fe6080604052600436106100705760003560e01c80638641c5c31161004e5780638641c5c314610362578063ae224633146104c1578063b1b29483146104ec578063f14faf6f1461064b57610070565b80631e823acd146100755780633cdf644a146101d6578063447f9e9d14610201575b600080fd5b34801561008157600080fd5b506100ae6004803603602081101561009857600080fd5b8101908080359060200190929190505050610679565b60405180806020018673ffffffffffffffffffffffffffffffffffffffff1673ffffffffffffffffffffffffffffffffffffffff16815260200180602001858152602001848152602001838103835288818151815260200191508051906020019080838360005b83811015610130578082015181840152602081019050610115565b50505050905090810190601f16801561015d5780820380516001836020036101000a031916815260200191505b50838103825286818151815260200191508051906020019080838360005b8381101561019657808201518184015260208101905061017b565b50505050905090810190601f1680156101c35780820380516001836020036101000a031916815260200191505b5097505050505050505060405180910390f35b3480156101e257600080fd5b506101eb6107ff565b6040518082815260200191505060405180910390f35b34801561020d57600080fd5b5061023a6004803603602081101561022457600080fd5b8101908080359060200190929190505050610805565b60405180806020018673ffffffffffffffffffffffffffffffffffffffff1673ffffffffffffffffffffffffffffffffffffffff16815260200180602001858152602001848152602001838103835288818151815260200191508051906020019080838360005b838110156102bc5780820151818401526020810190506102a1565b50505050905090810190601f1680156102e95780820380516001836020036101000a031916815260200191505b50838103825286818151815260200191508051906020019080838360005b83811015610322578082015181840152602081019050610307565b50505050905090810190601f16801561034f5780820380516001836020036101000a031916815260200191505b5097505050505050505060405180910390f35b34801561036e57600080fd5b506104bf6004803603604081101561038557600080fd5b81019080803590602001906401000000008111156103a257600080fd5b8201836020820111156103b457600080fd5b803590602001918460018302840111640100000000831117156103d657600080fd5b91908080601f016020809104026020016040519081016040528093929190818152602001838380828437600081840152601f19601f8201169050808301925050505050505091929192908035906020019064010000000081111561043957600080fd5b82018360208201111561044b57600080fd5b8035906020019184600183028401116401000000008311171561046d57600080fd5b91908080601f016020809104026020016040519081016040528093929190818152602001838380828437600081840152601f19601f82011690508083019250505050505050919291929050505061098b565b005b3480156104cd57600080fd5b506104d6610a8a565b6040518082815260200191505060405180910390f35b3480156104f857600080fd5b506106496004803603604081101561050f57600080fd5b810190808035906020019064010000000081111561052c57600080fd5b82018360208201111561053e57600080fd5b8035906020019184600183028401116401000000008311171561056057600080fd5b91908080601f016020809104026020016040519081016040528093929190818152602001838380828437600081840152601f19601f820116905080830192505050505050509192919290803590602001906401000000008111156105c357600080fd5b8201836020820111156105d557600080fd5b803590602001918460018302840111640100000000831117156105f757600080fd5b91908080601f016020809104026020016040519081016040528093929190818152602001838380828437600081840152601f19601f820116905080830192505050505050509192919290505050610a90565b005b6106776004803603602081101561066157600080fd5b8101908080359060200190929190505050610b8f565b005b6002602052806000526040600020600091509050806000018054600181600116156101000203166002900480601f0160208091040260200160405190810160405280929190818152602001828054600181600116156101000203166002900480156107255780601f106106fa57610100808354040283529160200191610725565b820191906000526020600020905b81548152906001019060200180831161070857829003601f168201915b5050505050908060010160009054906101000a900473ffffffffffffffffffffffffffffffffffffffff1690806002018054600181600116156101000203166002900480601f0160208091040260200160405190810160405280929190818152602001828054600181600116156101000203166002900480156107e95780601f106107be576101008083540402835291602001916107e9565b820191906000526020600020905b8154815290600101906020018083116107cc57829003601f168201915b5050505050908060030154908060040154905085565b60015481565b6003602052806000526040600020600091509050806000018054600181600116156101000203166002900480601f0160208091040260200160405190810160405280929190818152602001828054600181600116156101000203166002900480156108b15780601f10610886576101008083540402835291602001916108b1565b820191906000526020600020905b81548152906001019060200180831161089457829003601f168201915b5050505050908060010160009054906101000a900473ffffffffffffffffffffffffffffffffffffffff1690806002018054600181600116156101000203166002900480601f0160208091040260200160405190810160405280929190818152602001828054600181600116156101000203166002900480156109755780601f1061094a57610100808354040283529160200191610975565b820191906000526020600020905b81548152906001019060200180831161095857829003601f168201915b5050505050908060030154908060040154905085565b6040518060a001604052808281526020013373ffffffffffffffffffffffffffffffffffffffff168152602001838152602001600081526020016000815250600260008054815260200190815260200160002060008201518160000190805190602001906109fa929190610dba565b5060208201518160010160006101000a81548173ffffffffffffffffffffffffffffffffffffffff021916908373ffffffffffffffffffffffffffffffffffffffff1602179055506040820151816002019080519060200190610a5e929190610dba565b506060820151816003015560808201518160040155905050600160008082825401925050819055505050565b60005481565b6040518060a001604052808281526020013373ffffffffffffffffffffffffffffffffffffffff16815260200183815260200160008152602001600081525060036000805481526020019081526020016000206000820151816000019080519060200190610aff929190610dba565b5060208201518160010160006101000a81548173ffffffffffffffffffffffffffffffffffffffff021916908373ffffffffffffffffffffffffffffffffffffffff1602179055506040820151816002019080519060200190610b63929190610dba565b506060820151816003015560808201518160040155905050600180600082825401925050819055505050565b610b97610e3a565b600260008381526020019081526020016000206040518060a0016040529081600082018054600181600116156101000203166002900480601f016020809104026020016040519081016040528092919081815260200182805460018160011615610100020316600290048015610c4e5780601f10610c2357610100808354040283529160200191610c4e565b820191906000526020600020905b815481529060010190602001808311610c3157829003601f168201915b505050505081526020016001820160009054906101000a900473ffffffffffffffffffffffffffffffffffffffff1673ffffffffffffffffffffffffffffffffffffffff1673ffffffffffffffffffffffffffffffffffffffff168152602001600282018054600181600116156101000203166002900480601f016020809104026020016040519081016040528092919081815260200182805460018160011615610100020316600290048015610d465780601f10610d1b57610100808354040283529160200191610d46565b820191906000526020600020905b815481529060010190602001808311610d2957829003601f168201915b505050505081526020016003820154815260200160048201548152505090506000816020015190508073ffffffffffffffffffffffffffffffffffffffff166108fc349081150290604051600060405180830381858888f19350505050158015610db4573d6000803e3d6000fd5b50505050565b828054600181600116156101000203166002900490600052602060002090601f016020900481019282601f10610dfb57805160ff1916838001178555610e29565b82800160010185558215610e29579182015b82811115610e28578251825591602001919060010190610e0d565b5b509050610e369190610e7f565b5090565b6040518060a0016040528060608152602001600073ffffffffffffffffffffffffffffffffffffffff1681526020016060815260200160008152602001600081525090565b610ea191905b80821115610e9d576000816000905550600101610e85565b5090565b9056fea265627a7a72315820798d024ed136455b23ef3941ada3a69b70ebc443f03d4086d8976dd838e36a5064736f6c63430005100032",
  "source": "pragma solidity >=0.4.21 <0.7.0;\r\n\r\ncontract Videostream {\r\n    uint public videos=0;\r\n    uint public images=0;\r\n    \r\n    struct Images{\r\n        string title;\r\n        address payable author_add;\r\n        string Hash;\r\n        uint likes;\r\n        uint dislikes;\r\n    }\r\n\r\n    struct Video{\r\n        string title;\r\n        address payable author_add;\r\n        string Hash;\r\n        uint likes;\r\n        uint dislikes;\r\n    }\r\n    mapping(uint=>Video) public video_lists;\r\n    mapping(uint=>Images) public image_lists;\r\n\r\n    function videouploading(string memory video_hash,string memory title) public {\r\n        video_lists[videos]= Video(title,msg.sender,video_hash,0,0);\r\n        videos+=1;\r\n    }\r\n    function imageuploading(string memory image_hash,string memory title) public {\r\n        image_lists[videos]= Images(title,msg.sender,image_hash,0,0);\r\n        images+=1;\r\n    }\r\n    function donate(uint video_number) public payable {\r\n        Video memory v=video_lists[video_number] ;\r\n        address payable owner=v.author_add;\r\n        address(owner).transfer(msg.value);\r\n    }\r\n}",
  "sourcePath": "D:\\5th_Semester\\IBC_Project_2019456_2019429_2019234\\contracts\\Videostream.sol",
  "compiler": {
    "name": "solc",
    "version": "0.5.16+commit.9c3226ce.Emscripten.clang"
  },
  "schemaVersion": "3.4.3",
  "updatedAt": "2022-02-01T14:56:02.089Z",
  "networkType": "ethereum",
  "devdoc": {
    "methods": {}
  },
  "userdoc": {
    "methods": {}
  }
}